{
  "abi": [
    {
      "inputs": [],
      "stateMutability": "nonpayable",
      "type": "constructor"
    },
    {
      "anonymous": false,
      "inputs": [
        {
          "indexed": false,
          "internalType": "address",
          "name": "strategy",
          "type": "address"
        },
        {
          "indexed": false,
          "internalType": "address",
          "name": "vault",
          "type": "address"
        }
      ],
      "name": "StrategyDeployed",
      "type": "event"
    },
    {
      "anonymous": false,
      "inputs": [
        {
          "indexed": false,
          "internalType": "address",
          "name": "strategy",
          "type": "address"
        },
        {
          "indexed": false,
          "internalType": "address",
          "name": "vault",
          "type": "address"
        }
      ],
      "name": "StrategyMigrated",
      "type": "event"
    },
    {
      "inputs": [
        {
          "internalType": "address",
          "name": "_asset",
          "type": "address"
        },
        {
          "internalType": "string",
          "name": "_name",
          "type": "string"
        },
        {
          "internalType": "string",
          "name": "_symbol",
          "type": "string"
        },
        {
          "internalType": "uint256",
          "name": "_maxSize",
          "type": "uint256"
        },
        {
          "internalType": "uint256",
          "name": "_fee",
          "type": "uint256"
        },
        {
          "internalType": "uint256",
          "name": "_epochTime",
          "type": "uint256"
        },
        {
          "internalType": "address[]",
          "name": "_guardians",
          "type": "address[]"
        }
      ],
      "name": "deployStrategy",
      "outputs": [
        {
          "internalType": "address",
          "name": "vault",
          "type": "address"
        },
        {
          "internalType": "address",
          "name": "strategy",
          "type": "address"
        }
      ],
      "stateMutability": "nonpayable",
      "type": "function"
    },
    {
      "inputs": [
        {
          "internalType": "address",
          "name": "strategy",
          "type": "address"
        }
      ],
      "name": "getStrategyOwner",
      "outputs": [
        {
          "internalType": "address",
          "name": "",
          "type": "address"
        }
      ],
      "stateMutability": "view",
      "type": "function"
    },
    {
      "inputs": [
        {
          "internalType": "address",
          "name": "vault",
          "type": "address"
        }
      ],
      "name": "getVaultStrategy",
      "outputs": [
        {
          "internalType": "address",
          "name": "",
          "type": "address"
        }
      ],
      "stateMutability": "view",
      "type": "function"
    },
    {
      "inputs": [
        {
          "internalType": "address",
          "name": "_vault",
          "type": "address"
        }
      ],
      "name": "migrateStrategy",
      "outputs": [
        {
          "internalType": "address",
          "name": "strategy",
          "type": "address"
        }
      ],
      "stateMutability": "nonpayable",
      "type": "function"
    },
    {
      "inputs": [
        {
          "internalType": "address",
          "name": "_factory",
          "type": "address"
        }
      ],
      "name": "setFactory",
      "outputs": [],
      "stateMutability": "nonpayable",
      "type": "function"
    }
  ],
  "bytecode": {
    "object": "0x608060405234801561001057600080fd5b50600280546001600160a01b0319163317905561073a806100326000396000f3fe608060405234801561001057600080fd5b50600436106100575760003560e01c80630c193be81461005c5780635bb478081461009457806397f8236e146100a9578063de338f34146100ed578063fafa6c6914610119575b600080fd5b61006f61006a36600461044e565b61012c565b604080516001600160a01b039384168152929091166020830152015b60405180910390f35b6100a76100a236600461057b565b610262565b005b6100d56100b736600461057b565b6001600160a01b039081166000908152602081905260409020541690565b6040516001600160a01b03909116815260200161008b565b6100d56100fb36600461057b565b6001600160a01b039081166000908152600160205260409020541690565b6100d561012736600461057b565b61029b565b600354604051631d127ed160e31b815260009182916001600160a01b039091169063e893f6889061016d908c908c908c908c908c908c908c906004016105e5565b6020604051808303816000875af115801561018c573d6000803e3d6000fd5b505050506040513d601f19601f820116820180604052508101906101b09190610679565b91506040516101be90610373565b604051809103906000f0801580156101da573d6000803e3d6000fd5b506001600160a01b0383811660008181526020818152604080832080549587166001600160a01b0319968716811790915560018352928190208054909516331790945583519182528101919091529192507f075ef9c9a6b3a958ad05b0b90d11434a7d691373056ff6502b8cb982d654f4c1910160405180910390a197509795505050505050565b6002546001600160a01b0316331461027957600080fd5b600380546001600160a01b0319166001600160a01b0392909216919091179055565b6001600160a01b038181166000908152602081815260408083205484168352600190915281205490911633146103175760405162461bcd60e51b815260206004820152601c60248201527f596f7520646f206e6f74206f776e207468697320737472617465677900000000604482015260640160405180910390fd5b60405161032390610373565b604051809103906000f08015801561033f573d6000803e3d6000fd5b506001600160a01b03928316600090815260208190526040902080546001600160a01b031916938216939093179092555090565b606e8061069783390190565b6001600160a01b038116811461039457600080fd5b50565b634e487b7160e01b600052604160045260246000fd5b604051601f8201601f1916810167ffffffffffffffff811182821017156103d6576103d6610397565b604052919050565b600082601f8301126103ef57600080fd5b813567ffffffffffffffff81111561040957610409610397565b61041c601f8201601f19166020016103ad565b81815284602083860101111561043157600080fd5b816020850160208301376000918101602001919091529392505050565b600080600080600080600060e0888a03121561046957600080fd5b87356104748161037f565b965060208881013567ffffffffffffffff8082111561049257600080fd5b61049e8c838d016103de565b985060408b01359150808211156104b457600080fd5b6104c08c838d016103de565b975060608b0135965060808b0135955060a08b0135945060c08b01359150808211156104eb57600080fd5b818b0191508b601f8301126104ff57600080fd5b81358181111561051157610511610397565b8060051b91506105228483016103ad565b818152918301840191848101908e84111561053c57600080fd5b938501935b8385101561056657843592506105568361037f565b8282529385019390850190610541565b80965050505050505092959891949750929550565b60006020828403121561058d57600080fd5b81356105988161037f565b9392505050565b6000815180845260005b818110156105c5576020818501810151868301820152016105a9565b506000602082860101526020601f19601f83011685010191505092915050565b600060018060a01b03808a168352602060e08185015261060860e085018b61059f565b848103604086015261061a818b61059f565b606086018a90526080860189905260a0860188905285810360c0870152865180825283880192509083019060005b81811015610666578351861683529284019291840191600101610648565b50909d9c50505050505050505050505050565b60006020828403121561068b57600080fd5b81516105988161037f56fe6080604052348015600f57600080fd5b50600080546001600160a01b03191633179055603f80602f6000396000f3fe6080604052600080fdfea264697066735822122019693241e99f4c6d4392903b98c842ef4e7ca1aae1345ff661a58814020d674664736f6c63430008100033a2646970667358221220743382e313d78f3d14bf13902a358008b29080440cf3a013b6d299e93a86311564736f6c63430008100033",
    "linkReferences": {}
  },
  "methodIdentifiers": {
    "deployStrategy(address,string,string,uint256,uint256,uint256,address[])": "0c193be8",
    "getStrategyOwner(address)": "de338f34",
    "getVaultStrategy(address)": "97f8236e",
    "migrateStrategy(address)": "fafa6c69",
    "setFactory(address)": "5bb47808"
  },
  "id": 1
}