{
  "abi": [
    {
      "inputs": [],
      "stateMutability": "nonpayable",
      "type": "constructor"
    },
    {
      "inputs": [
        {
          "internalType": "address",
          "name": "_asset",
          "type": "address"
        },
        {
          "internalType": "string",
          "name": "_name",
          "type": "string"
        },
        {
          "internalType": "string",
          "name": "_symbol",
          "type": "string"
        }
      ],
      "name": "createVault",
      "outputs": [
        {
          "internalType": "address",
          "name": "",
          "type": "address"
        }
      ],
      "stateMutability": "nonpayable",
      "type": "function"
    },
    {
      "inputs": [
        {
          "internalType": "address",
          "name": "queryooor",
          "type": "address"
        }
      ],
      "name": "getStrategy",
      "outputs": [
        {
          "internalType": "address",
          "name": "",
          "type": "address"
        }
      ],
      "stateMutability": "view",
      "type": "function"
    },
    {
      "inputs": [
        {
          "internalType": "address",
          "name": "_vault",
          "type": "address"
        },
        {
          "internalType": "address",
          "name": "_strategy",
          "type": "address"
        }
      ],
      "name": "updateStrategy",
      "outputs": [],
      "stateMutability": "nonpayable",
      "type": "function"
    },
    {
      "inputs": [],
      "name": "vault",
      "outputs": [
        {
          "internalType": "contract Vault",
          "name": "",
          "type": "address"
        }
      ],
      "stateMutability": "view",
      "type": "function"
    },
    {
      "inputs": [
        {
          "internalType": "address",
          "name": "",
          "type": "address"
        }
      ],
      "name": "vaultsToStrategies",
      "outputs": [
        {
          "internalType": "address",
          "name": "",
          "type": "address"
        }
      ],
      "stateMutability": "view",
      "type": "function"
    },
    {
      "stateMutability": "payable",
      "type": "receive"
    }
  ],
  "bytecode": {
    "object": "0x608060405234801561001057600080fd5b50612370806100206000396000f3fe608060405260043610620000545760003560e01c806329f88ace1462000061578063515d61ec1462000088578063749f9d9e14620000c9578063f8806a131462000103578063fbfa77cf146200014057600080fd5b366200005c57005b600080fd5b3480156200006e57600080fd5b506200008662000080366004620002dd565b62000162565b005b3480156200009557600080fd5b50620000ad620000a7366004620003c0565b6200024c565b6040516001600160a01b03909116815260200160405180910390f35b348015620000d657600080fd5b50620000ad620000e83660046200043d565b6002602052600090815260409020546001600160a01b031681565b3480156200011057600080fd5b50620000ad620001223660046200043d565b6001600160a01b039081166000908152600260205260409020541690565b3480156200014d57600080fd5b50600154620000ad906001600160a01b031681565b604051630c68ba2160e01b81523360048201526001600160a01b03831690630c68ba2190602401602060405180830381865afa158015620001a7573d6000803e3d6000fd5b505050506040513d601f19601f82011682018060405250810190620001cd919062000462565b6200021e5760405162461bcd60e51b815260206004820152601d60248201527f43616c6c6572206d757374206265205661756c7420477561726469616e000000604482015260640160405180910390fd5b6001600160a01b03918216600090815260026020526040902080546001600160a01b03191691909216179055565b60008383836040516200025f90620002b2565b6200026d93929190620004d6565b604051809103906000f0801580156200028a573d6000803e3d6000fd5b50600180546001600160a01b0319166001600160a01b03929092169182179055949350505050565b611e20806200051b83390190565b80356001600160a01b0381168114620002d857600080fd5b919050565b60008060408385031215620002f157600080fd5b620002fc83620002c0565b91506200030c60208401620002c0565b90509250929050565b634e487b7160e01b600052604160045260246000fd5b600082601f8301126200033d57600080fd5b813567ffffffffffffffff808211156200035b576200035b62000315565b604051601f8301601f19908116603f0116810190828211818310171562000386576200038662000315565b81604052838152866020858801011115620003a057600080fd5b836020870160208301376000602085830101528094505050505092915050565b600080600060608486031215620003d657600080fd5b620003e184620002c0565b9250602084013567ffffffffffffffff80821115620003ff57600080fd5b6200040d878388016200032b565b935060408601359150808211156200042457600080fd5b5062000433868287016200032b565b9150509250925092565b6000602082840312156200045057600080fd5b6200045b82620002c0565b9392505050565b6000602082840312156200047557600080fd5b815180151581146200045b57600080fd5b6000815180845260005b81811015620004ae5760208185018101518683018201520162000490565b81811115620004c1576000602083870101525b50601f01601f19169290920160200192915050565b6001600160a01b0384168152606060208201819052600090620004fc9083018562000486565b828103604084015262000510818562000486565b969550505050505056fe6101006040523480156200001257600080fd5b5060405162001e2038038062001e2083398101604081905262000035916200026d565b8282828181846001600160a01b031663313ce5676040518163ffffffff1660e01b8152600401602060405180830381865afa15801562000079573d6000803e3d6000fd5b505050506040513d601f19601f820116820180604052508101906200009f9190620002f7565b6000620000ad8482620003b2565b506001620000bc8382620003b2565b5060ff81166080524660a052620000d262000104565b60c0525050506001600160a01b0390921660e0525050600680546001600160a01b0319163317905550620004fc915050565b60007f8b73c3c69bb8fe3d512ecc4cf759cc79239f7b179b0ffacaa9a75d522b39400f60006040516200013891906200047e565b6040805191829003822060208301939093528101919091527fc89efdaa54c0f20c7adf612882df0950f5a951637e0307cdcb4c672f298b8bc660608201524660808201523060a082015260c00160405160208183030381529060405280519060200120905090565b634e487b7160e01b600052604160045260246000fd5b600082601f830112620001c857600080fd5b81516001600160401b0380821115620001e557620001e5620001a0565b604051601f8301601f19908116603f01168101908282118183101715620002105762000210620001a0565b816040528381526020925086838588010111156200022d57600080fd5b600091505b8382101562000251578582018301518183018401529082019062000232565b83821115620002635760008385830101525b9695505050505050565b6000806000606084860312156200028357600080fd5b83516001600160a01b03811681146200029b57600080fd5b60208501519093506001600160401b0380821115620002b957600080fd5b620002c787838801620001b6565b93506040860151915080821115620002de57600080fd5b50620002ed86828701620001b6565b9150509250925092565b6000602082840312156200030a57600080fd5b815160ff811681146200031c57600080fd5b9392505050565b600181811c908216806200033857607f821691505b6020821081036200035957634e487b7160e01b600052602260045260246000fd5b50919050565b601f821115620003ad57600081815260208120601f850160051c81016020861015620003885750805b601f850160051c820191505b81811015620003a95782815560010162000394565b5050505b505050565b81516001600160401b03811115620003ce57620003ce620001a0565b620003e681620003df845462000323565b846200035f565b602080601f8311600181146200041e5760008415620004055750858301515b600019600386901b1c1916600185901b178555620003a9565b600085815260208120601f198616915b828110156200044f578886015182559484019460019091019084016200042e565b50858210156200046e5787850151600019600388901b60f8161c191681555b5050505050600190811b01905550565b60008083546200048e8162000323565b60018281168015620004a95760018114620004bf57620004f0565b60ff1984168752821515830287019450620004f0565b8760005260208060002060005b85811015620004e75781548a820152908401908201620004cc565b50505082870194505b50929695505050505050565b60805160a05160c05160e0516118c7620005596000396000818161035f015281816105d601528181610a6301528181610afb01528181610cdf0152610e21015260006108aa0152600061087a0152600061031e01526118c76000f3fe608060405234801561001057600080fd5b50600436106102275760003560e01c80637ecebe0011610130578063c45a0155116100b8578063d905777e1161007c578063d905777e14610521578063dd62ed3e1461054a578063e1f21c6714610575578063ef8b30f714610588578063f11b81881461059b57600080fd5b8063c45a0155146104d5578063c63d75b614610399578063c6e6f592146104e8578063ce96cb77146104fb578063d505accf1461050e57600080fd5b806395d89b41116100ff57806395d89b4114610481578063a9059cbb14610489578063b3d7f6b91461049c578063b460af94146104af578063ba087652146104c257600080fd5b80637ecebe00146104095780637fd6f15c14610429578063900cf0cf1461045457806394bf804d1461046e57600080fd5b80632d5272e3116101b3578063402d267d11610182578063402d267d146103995780634cdad506146103ae5780635c84a373146103c15780636e553f65146103d657806370a08231146103e957600080fd5b80632d5272e314610310578063313ce567146103195780633644e5151461035257806338d52e0f1461035a57600080fd5b8063095ea7b3116101fa578063095ea7b3146102a25780630a28a477146102b55780630c68ba21146102c857806318160ddd146102f457806323b872dd146102fd57600080fd5b806301e1d1141461022c5780630633b14a1461024757806306fdde031461027a57806307a2d13a1461028f575b600080fd5b6102346105be565b6040519081526020015b60405180910390f35b61026a610255366004611427565b60096020526000908152604090205460ff1681565b604051901515815260200161023e565b61028261064e565b60405161023e9190611444565b61023461029d366004611499565b6106dc565b61026a6102b03660046114b2565b610709565b6102346102c3366004611499565b610776565b61026a6102d6366004611427565b6001600160a01b031660009081526009602052604090205460ff1690565b61023460025481565b61026a61030b3660046114de565b610796565b61023460075481565b6103407f000000000000000000000000000000000000000000000000000000000000000081565b60405160ff909116815260200161023e565b610234610876565b6103817f000000000000000000000000000000000000000000000000000000000000000081565b6040516001600160a01b03909116815260200161023e565b6102346103a7366004611427565b5060001990565b6102346103bc366004611499565b6108cc565b6103d46103cf36600461151f565b6108d7565b005b6102346103e43660046115a4565b610a0b565b6102346103f7366004611427565b60036020526000908152604090205481565b610234610417366004611427565b60056020526000908152604090205481565b60085461043c906001600160801b031681565b6040516001600160801b03909116815260200161023e565b60085461043c90600160801b90046001600160801b031681565b61023461047c3660046115a4565b610ae1565b610282610b70565b61026a6104973660046114b2565b610b7d565b6102346104aa366004611499565b610be3565b6102346104bd3660046115d4565b610c02565b6102346104d03660046115d4565b610d06565b600654610381906001600160a01b031681565b6102346104f6366004611499565b610e48565b610234610509366004611427565b610e68565b6103d461051c366004611616565b610e8a565b61023461052f366004611427565b6001600160a01b031660009081526003602052604090205490565b61023461055836600461168d565b600460209081526000928352604080842090915290825290205481565b6103d46105833660046114de565b6110ce565b610234610596366004611499565b611168565b61026a6105a9366004611427565b600a6020526000908152604090205460ff1681565b6040516370a0823160e01b81523060048201526000907f00000000000000000000000000000000000000000000000000000000000000006001600160a01b0316906370a0823190602401602060405180830381865afa158015610625573d6000803e3d6000fd5b505050506040513d601f19601f8201168201806040525081019061064991906116bb565b905090565b6000805461065b906116d4565b80601f0160208091040260200160405190810160405280929190818152602001828054610687906116d4565b80156106d45780601f106106a9576101008083540402835291602001916106d4565b820191906000526020600020905b8154815290600101906020018083116106b757829003601f168201915b505050505081565b6002546000908015610700576106fb6106f36105be565b849083611173565b610702565b825b9392505050565b3360008181526004602090815260408083206001600160a01b038716808552925280832085905551919290917f8c5be1e5ebec7d5bd14f71427d1e84f3dd0314c0f7b2291e5b200ac8c7c3b925906107649086815260200190565b60405180910390a35060015b92915050565b6002546000908015610700576106fb8161078e6105be565b859190611191565b6001600160a01b038316600090815260046020908152604080832033845290915281205460001981146107f2576107cd8382611724565b6001600160a01b03861660009081526004602090815260408083203384529091529020555b6001600160a01b0385166000908152600360205260408120805485929061081a908490611724565b90915550506001600160a01b0380851660008181526003602052604090819020805487019055519091871690600080516020611872833981519152906108639087815260200190565b60405180910390a3506001949350505050565b60007f000000000000000000000000000000000000000000000000000000000000000046146108a7576106496111b7565b507f000000000000000000000000000000000000000000000000000000000000000090565b6000610770826106dc565b3360009081526009602052604090205460ff166109275760405162461bcd60e51b815260206004820152600960248201526810b3bab0b93234b0b760b91b60448201526064015b60405180910390fd5b60065460405163f8806a1360e01b81523360048201526001600160a01b039091169063f8806a1390602401602060405180830381865afa15801561096f573d6000803e3d6000fd5b505050506040513d601f19601f82011682018060405250810190610993919061173b565b6001600160a01b0316631cff79cd8484846040518463ffffffff1660e01b81526004016109c293929190611758565b6020604051808303816000875af11580156109e1573d6000803e3d6000fd5b505050506040513d601f19601f82011682018060405250810190610a059190611798565b50505050565b6000610a1683611168565b905080600003610a565760405162461bcd60e51b815260206004820152600b60248201526a5a45524f5f53484152455360a81b604482015260640161091e565b610a8b6001600160a01b037f000000000000000000000000000000000000000000000000000000000000000016333086611251565b610a9582826112db565b60408051848152602081018390526001600160a01b0384169133917fdcbc1c05240f31ff3ad067ef1ee35ce4997762752e3a095284754544f4c709d791015b60405180910390a3610770565b6000610aec83610be3565b9050610b236001600160a01b037f000000000000000000000000000000000000000000000000000000000000000016333084611251565b610b2d82846112db565b60408051828152602081018590526001600160a01b0384169133917fdcbc1c05240f31ff3ad067ef1ee35ce4997762752e3a095284754544f4c709d79101610ad4565b6001805461065b906116d4565b33600090815260036020526040812080548391908390610b9e908490611724565b90915550506001600160a01b03831660008181526003602052604090819020805485019055513390600080516020611872833981519152906107649086815260200190565b6002546000908015610700576106fb610bfa6105be565b849083611191565b6000610c0d84610776565b9050336001600160a01b03831614610c7d576001600160a01b03821660009081526004602090815260408083203384529091529020546000198114610c7b57610c568282611724565b6001600160a01b03841660009081526004602090815260408083203384529091529020555b505b610c878282611335565b60408051858152602081018390526001600160a01b03808516929086169133917ffbde797d201c681b91056529119e0b02407c7bb96a4a2c75c01fc9667232c8db910160405180910390a46107026001600160a01b037f0000000000000000000000000000000000000000000000000000000000000000168486611397565b6000336001600160a01b03831614610d76576001600160a01b03821660009081526004602090815260408083203384529091529020546000198114610d7457610d4f8582611724565b6001600160a01b03841660009081526004602090815260408083203384529091529020555b505b610d7f846108cc565b905080600003610dbf5760405162461bcd60e51b815260206004820152600b60248201526a5a45524f5f41535345545360a81b604482015260640161091e565b610dc98285611335565b60408051828152602081018690526001600160a01b03808516929086169133917ffbde797d201c681b91056529119e0b02407c7bb96a4a2c75c01fc9667232c8db910160405180910390a46107026001600160a01b037f0000000000000000000000000000000000000000000000000000000000000000168483611397565b6002546000908015610700576106fb81610e606105be565b859190611173565b6001600160a01b038116600090815260036020526040812054610770906106dc565b42841015610eda5760405162461bcd60e51b815260206004820152601760248201527f5045524d49545f444541444c494e455f45585049524544000000000000000000604482015260640161091e565b60006001610ee6610876565b6001600160a01b038a811660008181526005602090815260409182902080546001810190915582517f6e71edae12b1b97f4d1f60370fef10105fa2faae0126114a169c64845d6126c98184015280840194909452938d166060840152608083018c905260a083019390935260c08083018b90528151808403909101815260e08301909152805192019190912061190160f01b6101008301526101028201929092526101228101919091526101420160408051601f198184030181528282528051602091820120600084529083018083525260ff871690820152606081018590526080810184905260a0016020604051602081039080840390855afa158015610ff2573d6000803e3d6000fd5b5050604051601f1901519150506001600160a01b038116158015906110285750876001600160a01b0316816001600160a01b0316145b6110655760405162461bcd60e51b815260206004820152600e60248201526d24a72b20a624a22fa9a4a3a722a960911b604482015260640161091e565b6001600160a01b0390811660009081526004602090815260408083208a8516808552908352928190208990555188815291928a16917f8c5be1e5ebec7d5bd14f71427d1e84f3dd0314c0f7b2291e5b200ac8c7c3b925910160405180910390a350505050505050565b3360009081526009602052604090205460ff166111195760405162461bcd60e51b815260206004820152600960248201526810b3bab0b93234b0b760b91b604482015260640161091e565b6001600160a01b038281166000818152600a602052604090819020805460ff191660011790555163095ea7b360e01b81529185166004830152602482018390529063095ea7b3906044016109c2565b600061077082610e48565b600082600019048411830215820261118a57600080fd5b5091020490565b60008260001904841183021582026111a857600080fd5b50910281810615159190040190565b60007f8b73c3c69bb8fe3d512ecc4cf759cc79239f7b179b0ffacaa9a75d522b39400f60006040516111e991906117ba565b6040805191829003822060208301939093528101919091527fc89efdaa54c0f20c7adf612882df0950f5a951637e0307cdcb4c672f298b8bc660608201524660808201523060a082015260c00160405160208183030381529060405280519060200120905090565b60006040516323b872dd60e01b81528460048201528360248201528260448201526020600060648360008a5af13d15601f3d11600160005114161716915050806112d45760405162461bcd60e51b81526020600482015260146024820152731514905394d1915497d19493d357d1905253115160621b604482015260640161091e565b5050505050565b80600260008282546112ed9190611859565b90915550506001600160a01b03821660008181526003602090815260408083208054860190555184815260008051602061187283398151915291015b60405180910390a35050565b6001600160a01b0382166000908152600360205260408120805483929061135d908490611724565b90915550506002805482900390556040518181526000906001600160a01b0384169060008051602061187283398151915290602001611329565b600060405163a9059cbb60e01b8152836004820152826024820152602060006044836000895af13d15601f3d1160016000511416171691505080610a055760405162461bcd60e51b815260206004820152600f60248201526e1514905394d1915497d19052531151608a1b604482015260640161091e565b6001600160a01b038116811461142457600080fd5b50565b60006020828403121561143957600080fd5b81356107028161140f565b600060208083528351808285015260005b8181101561147157858101830151858201604001528201611455565b81811115611483576000604083870101525b50601f01601f1916929092016040019392505050565b6000602082840312156114ab57600080fd5b5035919050565b600080604083850312156114c557600080fd5b82356114d08161140f565b946020939093013593505050565b6000806000606084860312156114f357600080fd5b83356114fe8161140f565b9250602084013561150e8161140f565b929592945050506040919091013590565b60008060006040848603121561153457600080fd5b833561153f8161140f565b9250602084013567ffffffffffffffff8082111561155c57600080fd5b818601915086601f83011261157057600080fd5b81358181111561157f57600080fd5b87602082850101111561159157600080fd5b6020830194508093505050509250925092565b600080604083850312156115b757600080fd5b8235915060208301356115c98161140f565b809150509250929050565b6000806000606084860312156115e957600080fd5b8335925060208401356115fb8161140f565b9150604084013561160b8161140f565b809150509250925092565b600080600080600080600060e0888a03121561163157600080fd5b873561163c8161140f565b9650602088013561164c8161140f565b95506040880135945060608801359350608088013560ff8116811461167057600080fd5b9699959850939692959460a0840135945060c09093013592915050565b600080604083850312156116a057600080fd5b82356116ab8161140f565b915060208301356115c98161140f565b6000602082840312156116cd57600080fd5b5051919050565b600181811c908216806116e857607f821691505b60208210810361170857634e487b7160e01b600052602260045260246000fd5b50919050565b634e487b7160e01b600052601160045260246000fd5b6000828210156117365761173661170e565b500390565b60006020828403121561174d57600080fd5b81516107028161140f565b6001600160a01b03841681526040602082018190528101829052818360608301376000818301606090810191909152601f909201601f1916010192915050565b6000602082840312156117aa57600080fd5b8151801515811461070257600080fd5b600080835481600182811c9150808316806117d657607f831692505b602080841082036117f557634e487b7160e01b86526022600452602486fd5b818015611809576001811461181e5761184b565b60ff198616895284151585028901965061184b565b60008a81526020902060005b868110156118435781548b82015290850190830161182a565b505084890196505b509498975050505050505050565b6000821982111561186c5761186c61170e565b50019056feddf252ad1be2c89b69c2b068fc378daa952ba7f163c4a11628f55a4df523b3efa26469706673582212208da0eb4d6ab2ed61354967151854d04bbe14d0515a28ce102e98ed92729fbfeb64736f6c634300080f0033a2646970667358221220eb287e95e008019c9246be96f5bdb459d464b756f881285c7ebf48a2066705a864736f6c634300080f0033",
    "linkReferences": {}
  },
  "methodIdentifiers": {
    "createVault(address,string,string)": "515d61ec",
    "getStrategy(address)": "f8806a13",
    "updateStrategy(address,address)": "29f88ace",
    "vault()": "fbfa77cf",
    "vaultsToStrategies(address)": "749f9d9e"
  },
  "id": 24
}