{
  "abi": [
    {
      "inputs": [
        {
          "internalType": "address",
          "name": "_registry",
          "type": "address"
        }
      ],
      "stateMutability": "nonpayable",
      "type": "constructor"
    },
    {
      "inputs": [
        {
          "internalType": "address",
          "name": "_asset",
          "type": "address"
        },
        {
          "internalType": "string",
          "name": "_name",
          "type": "string"
        },
        {
          "internalType": "string",
          "name": "_symbol",
          "type": "string"
        }
      ],
      "name": "createVault",
      "outputs": [
        {
          "internalType": "address",
          "name": "",
          "type": "address"
        }
      ],
      "stateMutability": "nonpayable",
      "type": "function"
    },
    {
      "inputs": [
        {
          "internalType": "address",
          "name": "queryooor",
          "type": "address"
        }
      ],
      "name": "getStrategy",
      "outputs": [
        {
          "internalType": "address",
          "name": "",
          "type": "address"
        }
      ],
      "stateMutability": "view",
      "type": "function"
    },
    {
      "inputs": [
        {
          "internalType": "address",
          "name": "_vault",
          "type": "address"
        },
        {
          "internalType": "address",
          "name": "_strategy",
          "type": "address"
        }
      ],
      "name": "updateStrategy",
      "outputs": [],
      "stateMutability": "nonpayable",
      "type": "function"
    },
    {
      "inputs": [],
      "name": "vault",
      "outputs": [
        {
          "internalType": "contract Vault",
          "name": "",
          "type": "address"
        }
      ],
      "stateMutability": "view",
      "type": "function"
    },
    {
      "inputs": [
        {
          "internalType": "address",
          "name": "",
          "type": "address"
        }
      ],
      "name": "vaultsToStrategies",
      "outputs": [
        {
          "internalType": "address",
          "name": "",
          "type": "address"
        }
      ],
      "stateMutability": "view",
      "type": "function"
    },
    {
      "stateMutability": "payable",
      "type": "receive"
    }
  ],
  "bytecode": {
    "object": "0x608060405234801561001057600080fd5b5060405161254538038061254583398101604081905261002f91610054565b600080546001600160a01b0319166001600160a01b0392909216919091179055610084565b60006020828403121561006657600080fd5b81516001600160a01b038116811461007d57600080fd5b9392505050565b6124b2806100936000396000f3fe608060405260043610620000545760003560e01c806329f88ace1462000061578063515d61ec1462000088578063749f9d9e14620000c9578063f8806a131462000103578063fbfa77cf146200014057600080fd5b366200005c57005b600080fd5b3480156200006e57600080fd5b5062000086620000803660046200033b565b62000162565b005b3480156200009557600080fd5b50620000ad620000a73660046200041e565b6200024d565b6040516001600160a01b03909116815260200160405180910390f35b348015620000d657600080fd5b50620000ad620000e83660046200049b565b6002602052600090815260409020546001600160a01b031681565b3480156200011057600080fd5b50620000ad620001223660046200049b565b6001600160a01b039081166000908152600260205260409020541690565b3480156200014d57600080fd5b50600154620000ad906001600160a01b031681565b604051630c68ba2160e01b81523360048201526001600160a01b03831690630c68ba2190602401602060405180830381865afa158015620001a7573d6000803e3d6000fd5b505050506040513d601f19601f82011682018060405250810190620001cd9190620004c0565b6200021f5760405162461bcd60e51b815260206004820152601d60248201527f43616c6c6572206d757374206265205661756c7420477561726469616e00000060448201526064015b60405180910390fd5b6001600160a01b03918216600090815260026020526040902080546001600160a01b03191691909216179055565b600080546001600160a01b03163314620002aa5760405162461bcd60e51b815260206004820181905260248201527f43616c6c6572206d75737420626520526567697374727920436f6e7472616374604482015260640162000216565b83838333604051620002bc9062000310565b620002cb949392919062000534565b604051809103906000f080158015620002e8573d6000803e3d6000fd5b50600180546001600160a01b0319166001600160a01b03929092169182179055949350505050565b611efb806200058283390190565b80356001600160a01b03811681146200033657600080fd5b919050565b600080604083850312156200034f57600080fd5b6200035a836200031e565b91506200036a602084016200031e565b90509250929050565b634e487b7160e01b600052604160045260246000fd5b600082601f8301126200039b57600080fd5b813567ffffffffffffffff80821115620003b957620003b962000373565b604051601f8301601f19908116603f01168101908282118183101715620003e457620003e462000373565b81604052838152866020858801011115620003fe57600080fd5b836020870160208301376000602085830101528094505050505092915050565b6000806000606084860312156200043457600080fd5b6200043f846200031e565b9250602084013567ffffffffffffffff808211156200045d57600080fd5b6200046b8783880162000389565b935060408601359150808211156200048257600080fd5b50620004918682870162000389565b9150509250925092565b600060208284031215620004ae57600080fd5b620004b9826200031e565b9392505050565b600060208284031215620004d357600080fd5b81518015158114620004b957600080fd5b6000815180845260005b818110156200050c57602081850181015186830182015201620004ee565b818111156200051f576000602083870101525b50601f01601f19169290920160200192915050565b600060018060a01b03808716835260806020840152620005586080840187620004e4565b83810360408501526200056c8187620004e4565b9250508084166060840152509594505050505056fe6101006040523480156200001257600080fd5b5060405162001efb38038062001efb8339810160408190526200003591620002a4565b8383838181846001600160a01b031663313ce5676040518163ffffffff1660e01b8152600401602060405180830381865afa15801562000079573d6000803e3d6000fd5b505050506040513d601f19601f820116820180604052508101906200009f919062000334565b6000620000ad8482620003ef565b506001620000bc8382620003ef565b5060ff81166080524660a052620000d26200011e565b60c0525050506001600160a01b0392831660e0525050600680546001600160a01b03191633179055166000908152600960205260409020805460ff191660011790555062000539915050565b60007f8b73c3c69bb8fe3d512ecc4cf759cc79239f7b179b0ffacaa9a75d522b39400f6000604051620001529190620004bb565b6040805191829003822060208301939093528101919091527fc89efdaa54c0f20c7adf612882df0950f5a951637e0307cdcb4c672f298b8bc660608201524660808201523060a082015260c00160405160208183030381529060405280519060200120905090565b80516001600160a01b0381168114620001d257600080fd5b919050565b634e487b7160e01b600052604160045260246000fd5b600082601f830112620001ff57600080fd5b81516001600160401b03808211156200021c576200021c620001d7565b604051601f8301601f19908116603f01168101908282118183101715620002475762000247620001d7565b816040528381526020925086838588010111156200026457600080fd5b600091505b8382101562000288578582018301518183018401529082019062000269565b838211156200029a5760008385830101525b9695505050505050565b60008060008060808587031215620002bb57600080fd5b620002c685620001ba565b60208601519094506001600160401b0380821115620002e457600080fd5b620002f288838901620001ed565b945060408701519150808211156200030957600080fd5b506200031887828801620001ed565b9250506200032960608601620001ba565b905092959194509250565b6000602082840312156200034757600080fd5b815160ff811681146200035957600080fd5b9392505050565b600181811c908216806200037557607f821691505b6020821081036200039657634e487b7160e01b600052602260045260246000fd5b50919050565b601f821115620003ea57600081815260208120601f850160051c81016020861015620003c55750805b601f850160051c820191505b81811015620003e657828155600101620003d1565b5050505b505050565b81516001600160401b038111156200040b576200040b620001d7565b62000423816200041c845462000360565b846200039c565b602080601f8311600181146200045b5760008415620004425750858301515b600019600386901b1c1916600185901b178555620003e6565b600085815260208120601f198616915b828110156200048c578886015182559484019460019091019084016200046b565b5085821015620004ab5787850151600019600388901b60f8161c191681555b5050505050600190811b01905550565b6000808354620004cb8162000360565b60018281168015620004e65760018114620004fc576200052d565b60ff19841687528215158302870194506200052d565b8760005260208060002060005b85811015620005245781548a82015290840190820162000509565b50505082870194505b50929695505050505050565b60805160a05160c05160e051611965620005966000396000818161037f015281816105f401528181610ac301528181610b5b01528181610d3f0152610e810152600061092b015260006108fb0152600061033e01526119656000f3fe608060405234801561001057600080fd5b50600436106102325760003560e01c80637ecebe0011610130578063c45a0155116100b8578063d905777e1161007c578063d905777e1461053f578063dd62ed3e14610568578063e1f21c6714610593578063ef8b30f7146105a6578063f11b8188146105b957600080fd5b8063c45a0155146104f3578063c63d75b6146103b9578063c6e6f59214610506578063ce96cb7714610519578063d505accf1461052c57600080fd5b806395d89b41116100ff57806395d89b411461049f578063a9059cbb146104a7578063b3d7f6b9146104ba578063b460af94146104cd578063ba087652146104e057600080fd5b80637ecebe00146104275780637fd6f15c14610447578063900cf0cf1461047257806394bf804d1461048c57600080fd5b80632b8a1c5a116101be578063402d267d11610182578063402d267d146103b95780634cdad506146103ce5780635c84a373146103e15780636e553f65146103f457806370a082311461040757600080fd5b80632b8a1c5a1461031b5780632d5272e314610330578063313ce567146103395780633644e5151461037257806338d52e0f1461037a57600080fd5b8063095ea7b311610205578063095ea7b3146102ad5780630a28a477146102c05780630c68ba21146102d357806318160ddd146102ff57806323b872dd1461030857600080fd5b806301e1d114146102375780630633b14a1461025257806306fdde031461028557806307a2d13a1461029a575b600080fd5b61023f6105dc565b6040519081526020015b60405180910390f35b61027561026036600461146b565b60096020526000908152604090205460ff1681565b6040519015158152602001610249565b61028d61066c565b6040516102499190611488565b61023f6102a83660046114dd565b6106fa565b6102756102bb3660046114f6565b610727565b61023f6102ce3660046114dd565b610794565b6102756102e136600461146b565b6001600160a01b031660009081526009602052604090205460ff1690565b61023f60025481565b610275610316366004611522565b6107b4565b61032e610329366004611571565b610894565b005b61023f60075481565b6103607f000000000000000000000000000000000000000000000000000000000000000081565b60405160ff9091168152602001610249565b61023f6108f7565b6103a17f000000000000000000000000000000000000000000000000000000000000000081565b6040516001600160a01b039091168152602001610249565b61023f6103c736600461146b565b5060001990565b61023f6103dc3660046114dd565b61094d565b61032e6103ef3660046115aa565b610958565b61023f61040236600461162f565b610a6b565b61023f61041536600461146b565b60036020526000908152604090205481565b61023f61043536600461146b565b60056020526000908152604090205481565b60085461045a906001600160801b031681565b6040516001600160801b039091168152602001610249565b60085461045a90600160801b90046001600160801b031681565b61023f61049a36600461162f565b610b41565b61028d610bd0565b6102756104b53660046114f6565b610bdd565b61023f6104c83660046114dd565b610c43565b61023f6104db366004611654565b610c62565b61023f6104ee366004611654565b610d66565b6006546103a1906001600160a01b031681565b61023f6105143660046114dd565b610ea8565b61023f61052736600461146b565b610ec8565b61032e61053a366004611696565b610eea565b61023f61054d36600461146b565b6001600160a01b031660009081526003602052604090205490565b61023f61057636600461170d565b600460209081526000928352604080842090915290825290205481565b61032e6105a1366004611522565b61112e565b61023f6105b43660046114dd565b6111ac565b6102756105c736600461146b565b600a6020526000908152604090205460ff1681565b6040516370a0823160e01b81523060048201526000907f00000000000000000000000000000000000000000000000000000000000000006001600160a01b0316906370a0823190602401602060405180830381865afa158015610643573d6000803e3d6000fd5b505050506040513d601f19601f82011682018060405250810190610667919061173b565b905090565b6000805461067990611754565b80601f01602080910402602001604051908101604052809291908181526020018280546106a590611754565b80156106f25780601f106106c7576101008083540402835291602001916106f2565b820191906000526020600020905b8154815290600101906020018083116106d557829003601f168201915b505050505081565b600254600090801561071e576107196107116105dc565b8490836111b7565b610720565b825b9392505050565b3360008181526004602090815260408083206001600160a01b038716808552925280832085905551919290917f8c5be1e5ebec7d5bd14f71427d1e84f3dd0314c0f7b2291e5b200ac8c7c3b925906107829086815260200190565b60405180910390a35060015b92915050565b600254600090801561071e57610719816107ac6105dc565b8591906111d5565b6001600160a01b03831660009081526004602090815260408083203384529091528120546000198114610810576107eb83826117a4565b6001600160a01b03861660009081526004602090815260408083203384529091529020555b6001600160a01b038516600090815260036020526040812080548592906108389084906117a4565b90915550506001600160a01b0380851660008181526003602052604090819020805487019055519091871690600080516020611910833981519152906108819087815260200190565b60405180910390a3506001949350505050565b3360009081526009602052604090205460ff166108cc5760405162461bcd60e51b81526004016108c3906117bb565b60405180910390fd5b6001600160a01b03919091166000908152600960205260409020805460ff1916911515919091179055565b60007f00000000000000000000000000000000000000000000000000000000000000004614610928576106676111fb565b507f000000000000000000000000000000000000000000000000000000000000000090565b600061078e826106fa565b3360009081526009602052604090205460ff166109875760405162461bcd60e51b81526004016108c3906117bb565b60065460405163f8806a1360e01b81523360048201526001600160a01b039091169063f8806a1390602401602060405180830381865afa1580156109cf573d6000803e3d6000fd5b505050506040513d601f19601f820116820180604052508101906109f391906117de565b6001600160a01b0316631cff79cd8484846040518463ffffffff1660e01b8152600401610a22939291906117fb565b6020604051808303816000875af1158015610a41573d6000803e3d6000fd5b505050506040513d601f19601f82011682018060405250810190610a65919061183b565b50505050565b6000610a76836111ac565b905080600003610ab65760405162461bcd60e51b815260206004820152600b60248201526a5a45524f5f53484152455360a81b60448201526064016108c3565b610aeb6001600160a01b037f000000000000000000000000000000000000000000000000000000000000000016333086611295565b610af5828261131f565b60408051848152602081018390526001600160a01b0384169133917fdcbc1c05240f31ff3ad067ef1ee35ce4997762752e3a095284754544f4c709d791015b60405180910390a361078e565b6000610b4c83610c43565b9050610b836001600160a01b037f000000000000000000000000000000000000000000000000000000000000000016333084611295565b610b8d828461131f565b60408051828152602081018590526001600160a01b0384169133917fdcbc1c05240f31ff3ad067ef1ee35ce4997762752e3a095284754544f4c709d79101610b34565b6001805461067990611754565b33600090815260036020526040812080548391908390610bfe9084906117a4565b90915550506001600160a01b03831660008181526003602052604090819020805485019055513390600080516020611910833981519152906107829086815260200190565b600254600090801561071e57610719610c5a6105dc565b8490836111d5565b6000610c6d84610794565b9050336001600160a01b03831614610cdd576001600160a01b03821660009081526004602090815260408083203384529091529020546000198114610cdb57610cb682826117a4565b6001600160a01b03841660009081526004602090815260408083203384529091529020555b505b610ce78282611379565b60408051858152602081018390526001600160a01b03808516929086169133917ffbde797d201c681b91056529119e0b02407c7bb96a4a2c75c01fc9667232c8db910160405180910390a46107206001600160a01b037f00000000000000000000000000000000000000000000000000000000000000001684866113db565b6000336001600160a01b03831614610dd6576001600160a01b03821660009081526004602090815260408083203384529091529020546000198114610dd457610daf85826117a4565b6001600160a01b03841660009081526004602090815260408083203384529091529020555b505b610ddf8461094d565b905080600003610e1f5760405162461bcd60e51b815260206004820152600b60248201526a5a45524f5f41535345545360a81b60448201526064016108c3565b610e298285611379565b60408051828152602081018690526001600160a01b03808516929086169133917ffbde797d201c681b91056529119e0b02407c7bb96a4a2c75c01fc9667232c8db910160405180910390a46107206001600160a01b037f00000000000000000000000000000000000000000000000000000000000000001684836113db565b600254600090801561071e5761071981610ec06105dc565b8591906111b7565b6001600160a01b03811660009081526003602052604081205461078e906106fa565b42841015610f3a5760405162461bcd60e51b815260206004820152601760248201527f5045524d49545f444541444c494e455f4558504952454400000000000000000060448201526064016108c3565b60006001610f466108f7565b6001600160a01b038a811660008181526005602090815260409182902080546001810190915582517f6e71edae12b1b97f4d1f60370fef10105fa2faae0126114a169c64845d6126c98184015280840194909452938d166060840152608083018c905260a083019390935260c08083018b90528151808403909101815260e08301909152805192019190912061190160f01b6101008301526101028201929092526101228101919091526101420160408051601f198184030181528282528051602091820120600084529083018083525260ff871690820152606081018590526080810184905260a0016020604051602081039080840390855afa158015611052573d6000803e3d6000fd5b5050604051601f1901519150506001600160a01b038116158015906110885750876001600160a01b0316816001600160a01b0316145b6110c55760405162461bcd60e51b815260206004820152600e60248201526d24a72b20a624a22fa9a4a3a722a960911b60448201526064016108c3565b6001600160a01b0390811660009081526004602090815260408083208a8516808552908352928190208990555188815291928a16917f8c5be1e5ebec7d5bd14f71427d1e84f3dd0314c0f7b2291e5b200ac8c7c3b925910160405180910390a350505050505050565b3360009081526009602052604090205460ff1661115d5760405162461bcd60e51b81526004016108c3906117bb565b6001600160a01b038281166000818152600a602052604090819020805460ff191660011790555163095ea7b360e01b81529185166004830152602482018390529063095ea7b390604401610a22565b600061078e82610ea8565b60008260001904841183021582026111ce57600080fd5b5091020490565b60008260001904841183021582026111ec57600080fd5b50910281810615159190040190565b60007f8b73c3c69bb8fe3d512ecc4cf759cc79239f7b179b0ffacaa9a75d522b39400f600060405161122d9190611858565b6040805191829003822060208301939093528101919091527fc89efdaa54c0f20c7adf612882df0950f5a951637e0307cdcb4c672f298b8bc660608201524660808201523060a082015260c00160405160208183030381529060405280519060200120905090565b60006040516323b872dd60e01b81528460048201528360248201528260448201526020600060648360008a5af13d15601f3d11600160005114161716915050806113185760405162461bcd60e51b81526020600482015260146024820152731514905394d1915497d19493d357d1905253115160621b60448201526064016108c3565b5050505050565b806002600082825461133191906118f7565b90915550506001600160a01b03821660008181526003602090815260408083208054860190555184815260008051602061191083398151915291015b60405180910390a35050565b6001600160a01b038216600090815260036020526040812080548392906113a19084906117a4565b90915550506002805482900390556040518181526000906001600160a01b038416906000805160206119108339815191529060200161136d565b600060405163a9059cbb60e01b8152836004820152826024820152602060006044836000895af13d15601f3d1160016000511416171691505080610a655760405162461bcd60e51b815260206004820152600f60248201526e1514905394d1915497d19052531151608a1b60448201526064016108c3565b6001600160a01b038116811461146857600080fd5b50565b60006020828403121561147d57600080fd5b813561072081611453565b600060208083528351808285015260005b818110156114b557858101830151858201604001528201611499565b818111156114c7576000604083870101525b50601f01601f1916929092016040019392505050565b6000602082840312156114ef57600080fd5b5035919050565b6000806040838503121561150957600080fd5b823561151481611453565b946020939093013593505050565b60008060006060848603121561153757600080fd5b833561154281611453565b9250602084013561155281611453565b929592945050506040919091013590565b801515811461146857600080fd5b6000806040838503121561158457600080fd5b823561158f81611453565b9150602083013561159f81611563565b809150509250929050565b6000806000604084860312156115bf57600080fd5b83356115ca81611453565b9250602084013567ffffffffffffffff808211156115e757600080fd5b818601915086601f8301126115fb57600080fd5b81358181111561160a57600080fd5b87602082850101111561161c57600080fd5b6020830194508093505050509250925092565b6000806040838503121561164257600080fd5b82359150602083013561159f81611453565b60008060006060848603121561166957600080fd5b83359250602084013561167b81611453565b9150604084013561168b81611453565b809150509250925092565b600080600080600080600060e0888a0312156116b157600080fd5b87356116bc81611453565b965060208801356116cc81611453565b95506040880135945060608801359350608088013560ff811681146116f057600080fd5b9699959850939692959460a0840135945060c09093013592915050565b6000806040838503121561172057600080fd5b823561172b81611453565b9150602083013561159f81611453565b60006020828403121561174d57600080fd5b5051919050565b600181811c9082168061176857607f821691505b60208210810361178857634e487b7160e01b600052602260045260246000fd5b50919050565b634e487b7160e01b600052601160045260246000fd5b6000828210156117b6576117b661178e565b500390565b60208082526009908201526810b3bab0b93234b0b760b91b604082015260600190565b6000602082840312156117f057600080fd5b815161072081611453565b6001600160a01b03841681526040602082018190528101829052818360608301376000818301606090810191909152601f909201601f1916010192915050565b60006020828403121561184d57600080fd5b815161072081611563565b600080835481600182811c91508083168061187457607f831692505b6020808410820361189357634e487b7160e01b86526022600452602486fd5b8180156118a757600181146118bc576118e9565b60ff19861689528415158502890196506118e9565b60008a81526020902060005b868110156118e15781548b8201529085019083016118c8565b505084890196505b509498975050505050505050565b6000821982111561190a5761190a61178e565b50019056feddf252ad1be2c89b69c2b068fc378daa952ba7f163c4a11628f55a4df523b3efa26469706673582212209bb64399b7cd92039fadf375fcde3b94c083c0b7bf084d5964eefc29d341648d64736f6c634300080f0033a2646970667358221220efb6d0da930948d3841ff5105597a16c7829415cf4b4de029b2d9e496788acca64736f6c634300080f0033",
    "linkReferences": {}
  },
  "methodIdentifiers": {
    "createVault(address,string,string)": "515d61ec",
    "getStrategy(address)": "f8806a13",
    "updateStrategy(address,address)": "29f88ace",
    "vault()": "fbfa77cf",
    "vaultsToStrategies(address)": "749f9d9e"
  },
  "id": 8
}