{
  "abi": [
    {
      "inputs": [
        {
          "internalType": "address",
          "name": "_registry",
          "type": "address"
        }
      ],
      "stateMutability": "nonpayable",
      "type": "constructor"
    },
    {
      "anonymous": false,
      "inputs": [
        {
          "indexed": false,
          "internalType": "address",
          "name": "vault",
          "type": "address"
        },
        {
          "indexed": false,
          "internalType": "address",
          "name": "asset",
          "type": "address"
        },
        {
          "indexed": false,
          "internalType": "string",
          "name": "name",
          "type": "string"
        },
        {
          "indexed": false,
          "internalType": "string",
          "name": "symbol",
          "type": "string"
        },
        {
          "indexed": false,
          "internalType": "uint256",
          "name": "maxSize",
          "type": "uint256"
        },
        {
          "indexed": false,
          "internalType": "uint256",
          "name": "fee",
          "type": "uint256"
        },
        {
          "indexed": false,
          "internalType": "uint256",
          "name": "epochTime",
          "type": "uint256"
        },
        {
          "indexed": false,
          "internalType": "address[]",
          "name": "guardians",
          "type": "address[]"
        }
      ],
      "name": "VaultCreated",
      "type": "event"
    },
    {
      "inputs": [
        {
          "internalType": "address",
          "name": "_asset",
          "type": "address"
        },
        {
          "internalType": "string",
          "name": "_name",
          "type": "string"
        },
        {
          "internalType": "string",
          "name": "_symbol",
          "type": "string"
        },
        {
          "internalType": "uint256",
          "name": "_maxSize",
          "type": "uint256"
        },
        {
          "internalType": "uint256",
          "name": "_fee",
          "type": "uint256"
        },
        {
          "internalType": "uint256",
          "name": "_epochTime",
          "type": "uint256"
        },
        {
          "internalType": "address[]",
          "name": "_guardians",
          "type": "address[]"
        }
      ],
      "name": "createVault",
      "outputs": [
        {
          "internalType": "address",
          "name": "vault",
          "type": "address"
        }
      ],
      "stateMutability": "nonpayable",
      "type": "function"
    }
  ],
  "bytecode": {
    "object": "0x608060405234801561001057600080fd5b5060405161074938038061074983398101604081905261002f91610054565b600080546001600160a01b0319166001600160a01b0392909216919091179055610084565b60006020828403121561006657600080fd5b81516001600160a01b038116811461007d57600080fd5b9392505050565b6106b6806100936000396000f3fe608060405234801561001057600080fd5b506004361061002b5760003560e01c8063e893f68814610030575b600080fd5b61004361003e36600461032b565b61005f565b6040516001600160a01b03909116815260200160405180910390f35b600080546001600160a01b031633146100be5760405162461bcd60e51b815260206004820181905260248201527f43616c6c6572206d75737420626520526567697374727920436f6e7472616374604482015260640160405180910390fd5b6040805160e0810182526001600160a01b038a8116825260208083018b81528385018b9052606084018a90526080840189905260a0840188905260c08401879052858316600090815260019283905294909420835181546001600160a01b03191693169290921782559251919290919082019061013b90826104da565b506040820151600282019061015090826104da565b50606082015160038201556080820151600482015560a0820151600582015560c0820151805161018a9160068401916020909101906101de565b509050507f0f9bed4ca0fc3f846be72514192ed37881a09c7e136fe00b08c6743809f082be81898989898989896040516101cb9897969594939291906105e0565b60405180910390a1979650505050505050565b828054828255906000526020600020908101928215610233579160200282015b8281111561023357825182546001600160a01b0319166001600160a01b039091161782556020909201916001909101906101fe565b5061023f929150610243565b5090565b5b8082111561023f5760008155600101610244565b80356001600160a01b038116811461026f57600080fd5b919050565b634e487b7160e01b600052604160045260246000fd5b604051601f8201601f1916810167ffffffffffffffff811182821017156102b3576102b3610274565b604052919050565b600082601f8301126102cc57600080fd5b813567ffffffffffffffff8111156102e6576102e6610274565b6102f9601f8201601f191660200161028a565b81815284602083860101111561030e57600080fd5b816020850160208301376000918101602001919091529392505050565b600080600080600080600060e0888a03121561034657600080fd5b61034f88610258565b965060208089013567ffffffffffffffff8082111561036d57600080fd5b6103798c838d016102bb565b985060408b013591508082111561038f57600080fd5b61039b8c838d016102bb565b975060608b0135965060808b0135955060a08b0135945060c08b01359150808211156103c657600080fd5b818b0191508b601f8301126103da57600080fd5b8135818111156103ec576103ec610274565b8060051b91506103fd84830161028a565b818152918301840191848101908e84111561041757600080fd5b938501935b8385101561043c5761042d85610258565b8252938501939085019061041c565b80965050505050505092959891949750929550565b600181811c9082168061046557607f821691505b60208210810361048557634e487b7160e01b600052602260045260246000fd5b50919050565b601f8211156104d557600081815260208120601f850160051c810160208610156104b25750805b601f850160051c820191505b818110156104d1578281556001016104be565b5050505b505050565b815167ffffffffffffffff8111156104f4576104f4610274565b610508816105028454610451565b8461048b565b602080601f83116001811461053d57600084156105255750858301515b600019600386901b1c1916600185901b1785556104d1565b600085815260208120601f198616915b8281101561056c5788860151825594840194600190910190840161054d565b508582101561058a5787850151600019600388901b60f8161c191681555b5050505050600190811b01905550565b6000815180845260005b818110156105c0576020818501810151868301820152016105a4565b506000602082860101526020601f19601f83011685010191505092915050565b600061010060018060a01b03808c1684526020818c168186015282604086015261060c8386018c61059a565b92508483036060860152610620838b61059a565b608086018a905260a0860189905260c0860188905285810360e0870152865180825282880194509082019060005b8181101561066c57855185168352948301949183019160010161064e565b50909e9d505050505050505050505050505056fea2646970667358221220a5e26ec5b5bf3a73706be07c7e1db6fc7a099dc9b7fee9aee3119ce222aecc7764736f6c63430008100033",
    "linkReferences": {}
  },
  "methodIdentifiers": {
    "createVault(address,string,string,uint256,uint256,uint256,address[])": "e893f688"
  },
  "id": 2
}