{
  "abi": [
    {
      "inputs": [
        {
          "internalType": "address",
          "name": "sAddress",
          "type": "address"
        },
        {
          "internalType": "bytes",
          "name": "data",
          "type": "bytes"
        }
      ],
      "name": "execute",
      "outputs": [
        {
          "internalType": "bool",
          "name": "success",
          "type": "bool"
        }
      ],
      "stateMutability": "nonpayable",
      "type": "function"
    }
  ],
  "bytecode": {
    "object": "0x608060405234801561001057600080fd5b50610197806100206000396000f3fe608060405234801561001057600080fd5b506004361061002b5760003560e01c80631cff79cd14610030575b600080fd5b61004361003e3660046100c0565b610057565b604051901515815260200160405180910390f35b6000836001600160a01b03168383604051610073929190610151565b6000604051808303816000865af19150503d80600081146100b0576040519150601f19603f3d011682016040523d82523d6000602084013e6100b5565b606091505b509095945050505050565b6000806000604084860312156100d557600080fd5b83356001600160a01b03811681146100ec57600080fd5b9250602084013567ffffffffffffffff8082111561010957600080fd5b818601915086601f83011261011d57600080fd5b81358181111561012c57600080fd5b87602082850101111561013e57600080fd5b6020830194508093505050509250925092565b818382376000910190815291905056fea264697066735822122070c6043569a0c2bf9d9d3c991f5b27c55a225b1a9f291c9fd4dc6d5c741460a264736f6c634300080f0033",
    "linkReferences": {}
  },
  "methodIdentifiers": {
    "execute(address,bytes)": "1cff79cd"
  },
  "id": 26
}