{
  "abi": [
    {
      "inputs": [
        {
          "internalType": "address",
          "name": "exchangeProxy_",
          "type": "address"
        }
      ],
      "stateMutability": "nonpayable",
      "type": "constructor"
    },
    {
      "inputs": [
        {
          "internalType": "bytes",
          "name": "data",
          "type": "bytes"
        }
      ],
      "name": "decodeSwapData",
      "outputs": [
        {
          "components": [
            {
              "internalType": "address",
              "name": "token0",
              "type": "address"
            },
            {
              "internalType": "address",
              "name": "token1",
              "type": "address"
            },
            {
              "internalType": "uint256",
              "name": "amount",
              "type": "uint256"
            }
          ],
          "internalType": "struct PairData[]",
          "name": "",
          "type": "tuple[]"
        }
      ],
      "stateMutability": "pure",
      "type": "function"
    },
    {
      "inputs": [
        {
          "internalType": "contract IERC20",
          "name": "sellToken",
          "type": "address"
        },
        {
          "internalType": "contract IERC20",
          "name": "buyToken",
          "type": "address"
        },
        {
          "internalType": "address",
          "name": "spender",
          "type": "address"
        },
        {
          "internalType": "address payable",
          "name": "swapTarget",
          "type": "address"
        },
        {
          "internalType": "bytes",
          "name": "swapCallData",
          "type": "bytes"
        }
      ],
      "name": "fillQuote",
      "outputs": [],
      "stateMutability": "payable",
      "type": "function"
    }
  ],
  "bytecode": {
    "object": "0x608060405234801561001057600080fd5b5060405161090838038061090883398101604081905261002f91610054565b600080546001600160a01b0319166001600160a01b0392909216919091179055610084565b60006020828403121561006657600080fd5b81516001600160a01b038116811461007d57600080fd5b9392505050565b610875806100936000396000f3fe6080604052600436106100295760003560e01c8063ab9716121461002e578063cde99e6314610043575b600080fd5b61004161003c366004610571565b610079565b005b34801561004f57600080fd5b5061006361005e3660046105ff565b610316565b6040516100709190610641565b60405180910390f35b6000546001600160a01b038481169116146100db5760405162461bcd60e51b815260206004820152601860248201527f546172676574206e6f742045786368616e676550726f7879000000000000000060448201526064015b60405180910390fd5b6040516370a0823160e01b81523060048201526000906001600160a01b038716906370a0823190602401602060405180830381865afa158015610122573d6000803e3d6000fd5b505050506040513d601f19601f8201168201806040525081019061014691906106a6565b60405163095ea7b360e01b81526001600160a01b03878116600483015260001960248301529192509088169063095ea7b3906044016020604051808303816000875af115801561019a573d6000803e3d6000fd5b505050506040513d601f19601f820116820180604052508101906101be91906106bf565b6101c757600080fd5b6000846001600160a01b03163485856040516101e49291906106e8565b60006040518083038185875af1925050503d8060008114610221576040519150601f19603f3d011682016040523d82523d6000602084013e610226565b606091505b505090508061026a5760405162461bcd60e51b815260206004820152601060248201526f14d5d05417d0d0531317d1905253115160821b60448201526064016100d2565b60405133904780156108fc02916000818181858888f19350505050158015610296573d6000803e3d6000fd5b506040516370a0823160e01b815230600482015282906001600160a01b038916906370a0823190602401602060405180830381865afa1580156102dd573d6000803e3d6000fd5b505050506040513d601f19601f8201168201806040525081019061030191906106a6565b61030b919061070e565b505050505050505050565b606061032360488361073b565b156103705760405162461bcd60e51b815260206004820152601e60248201527f5a525848656c7065723a20494e56414c49445f444154415f4c454e475448000060448201526064016100d2565b600061037d60488461074f565b90506000808267ffffffffffffffff81111561039b5761039b610763565b6040519080825280602002602001820160405280156103e657816020015b60408051606081018252600080825260208083018290529282015282526000199092019101816103b95790505b50905061040c604080516060810182526000808252602082018190529181019190915290565b60005b8481101561050457610422816048610779565b9350878488610432826014610798565b9261043f939291906107b0565b81019061044c91906107da565b6001600160a01b031682528787610464866014610798565b90610470876028610798565b9261047d939291906107b0565b81019061048a91906107da565b6001600160a01b0316602083015287876104a5866028610798565b906104b1876048610798565b926104be939291906107b0565b8101906104cb91906107f7565b6040830152825182908490839081106104e6576104e6610810565b602002602001018190525080806104fc90610826565b91505061040f565b50909695505050505050565b6001600160a01b038116811461052557600080fd5b50565b60008083601f84011261053a57600080fd5b50813567ffffffffffffffff81111561055257600080fd5b60208301915083602082850101111561056a57600080fd5b9250929050565b60008060008060008060a0878903121561058a57600080fd5b863561059581610510565b955060208701356105a581610510565b945060408701356105b581610510565b935060608701356105c581610510565b9250608087013567ffffffffffffffff8111156105e157600080fd5b6105ed89828a01610528565b979a9699509497509295939492505050565b6000806020838503121561061257600080fd5b823567ffffffffffffffff81111561062957600080fd5b61063585828601610528565b90969095509350505050565b602080825282518282018190526000919060409081850190868401855b8281101561069957815180516001600160a01b039081168652878201511687860152850151858501526060909301929085019060010161065e565b5091979650505050505050565b6000602082840312156106b857600080fd5b5051919050565b6000602082840312156106d157600080fd5b815180151581146106e157600080fd5b9392505050565b8183823760009101908152919050565b634e487b7160e01b600052601160045260246000fd5b600082821015610720576107206106f8565b500390565b634e487b7160e01b600052601260045260246000fd5b60008261074a5761074a610725565b500690565b60008261075e5761075e610725565b500490565b634e487b7160e01b600052604160045260246000fd5b6000816000190483118215151615610793576107936106f8565b500290565b600082198211156107ab576107ab6106f8565b500190565b600080858511156107c057600080fd5b838611156107cd57600080fd5b5050820193919092039150565b6000602082840312156107ec57600080fd5b81356106e181610510565b60006020828403121561080957600080fd5b5035919050565b634e487b7160e01b600052603260045260246000fd5b600060018201610838576108386106f8565b506001019056fea2646970667358221220e88463714b91bc08b6e88f90e1d623be243f7e1b6f656b059f646320513e670764736f6c634300080f0033",
    "linkReferences": {}
  },
  "methodIdentifiers": {
    "decodeSwapData(bytes)": "cde99e63",
    "fillQuote(address,address,address,address,bytes)": "ab971612"
  },
  "id": 25
}