{
  "abi": [
    {
      "inputs": [
        {
          "internalType": "address",
          "name": "sAddress",
          "type": "address"
        },
        {
          "internalType": "bytes",
          "name": "data",
          "type": "bytes"
        }
      ],
      "name": "execute",
      "outputs": [
        {
          "internalType": "bool",
          "name": "success",
          "type": "bool"
        }
      ],
      "stateMutability": "nonpayable",
      "type": "function"
    },
    {
      "inputs": [
        {
          "internalType": "address",
          "name": "strategyAddress",
          "type": "address"
        },
        {
          "internalType": "bytes",
          "name": "strategyData",
          "type": "bytes"
        }
      ],
      "name": "executeStrategy",
      "outputs": [],
      "stateMutability": "nonpayable",
      "type": "function"
    }
  ],
  "bytecode": {
    "object": "0x608060405234801561001057600080fd5b50610ec4806100206000396000f3fe608060405234801561001057600080fd5b50600436106100365760003560e01c80631cff79cd1461003b5780635c84a37314610062575b600080fd5b61004e610049366004610306565b610077565b604051901515815260200160405180910390f35b610075610070366004610306565b6100e0565b005b6000836001600160a01b0316838360405161009392919061038b565b6000604051808303816000865af19150503d80600081146100d0576040519150601f19603f3d011682016040523d82523d6000602084013e6100d5565b606091505b509095945050505050565b826040516100ed906102e1565b6001600160a01b039091168152602001604051809103906000f080158015610119573d6000803e3d6000fd5b50600080546001600160a01b0319166001600160a01b0392909216918217815560405163cde99e6360e01b81529091829163cde99e6390610160908790879060040161039b565b600060405180830381865afa15801561017d573d6000803e3d6000fd5b505050506040513d6000823e601f3d908101601f191682016040526101a5919081019061043a565b905060005b81518110156102d95760008282815181106101c7576101c7610520565b60209081029190910101518051604080830151905163e1f21c6760e01b81526001600160a01b03808c16600483015290921660248301526044820152909150339063e1f21c6790606401600060405180830381600087803b15801561022b57600080fd5b505af115801561023f573d6000803e3d6000fd5b5050825160408085015190516323b872dd60e01b81523360048201526001600160a01b038c811660248301526044820192909252911692506323b872dd91506064016020604051808303816000875af11580156102a0573d6000803e3d6000fd5b505050506040513d601f19601f820116820180604052508101906102c49190610536565b505080806102d19061055f565b9150506101aa565b505050505050565b6109088061058783390190565b6001600160a01b038116811461030357600080fd5b50565b60008060006040848603121561031b57600080fd5b8335610326816102ee565b9250602084013567ffffffffffffffff8082111561034357600080fd5b818601915086601f83011261035757600080fd5b81358181111561036657600080fd5b87602082850101111561037857600080fd5b6020830194508093505050509250925092565b8183823760009101908152919050565b60208152816020820152818360408301376000818301604090810191909152601f909201601f19160101919050565b634e487b7160e01b600052604160045260246000fd5b6040516060810167ffffffffffffffff81118282101715610403576104036103ca565b60405290565b604051601f8201601f1916810167ffffffffffffffff81118282101715610432576104326103ca565b604052919050565b6000602080838503121561044d57600080fd5b825167ffffffffffffffff8082111561046557600080fd5b818501915085601f83011261047957600080fd5b81518181111561048b5761048b6103ca565b610499848260051b01610409565b818152848101925060609182028401850191888311156104b857600080fd5b938501935b828510156105145780858a0312156104d55760008081fd5b6104dd6103e0565b85516104e8816102ee565b8152858701516104f7816102ee565b8188015260408681015190820152845293840193928501926104bd565b50979650505050505050565b634e487b7160e01b600052603260045260246000fd5b60006020828403121561054857600080fd5b8151801515811461055857600080fd5b9392505050565b60006001820161057f57634e487b7160e01b600052601160045260246000fd5b506001019056fe608060405234801561001057600080fd5b5060405161090838038061090883398101604081905261002f91610054565b600080546001600160a01b0319166001600160a01b0392909216919091179055610084565b60006020828403121561006657600080fd5b81516001600160a01b038116811461007d57600080fd5b9392505050565b610875806100936000396000f3fe6080604052600436106100295760003560e01c8063ab9716121461002e578063cde99e6314610043575b600080fd5b61004161003c366004610571565b610079565b005b34801561004f57600080fd5b5061006361005e3660046105ff565b610316565b6040516100709190610641565b60405180910390f35b6000546001600160a01b038481169116146100db5760405162461bcd60e51b815260206004820152601860248201527f546172676574206e6f742045786368616e676550726f7879000000000000000060448201526064015b60405180910390fd5b6040516370a0823160e01b81523060048201526000906001600160a01b038716906370a0823190602401602060405180830381865afa158015610122573d6000803e3d6000fd5b505050506040513d601f19601f8201168201806040525081019061014691906106a6565b60405163095ea7b360e01b81526001600160a01b03878116600483015260001960248301529192509088169063095ea7b3906044016020604051808303816000875af115801561019a573d6000803e3d6000fd5b505050506040513d601f19601f820116820180604052508101906101be91906106bf565b6101c757600080fd5b6000846001600160a01b03163485856040516101e49291906106e8565b60006040518083038185875af1925050503d8060008114610221576040519150601f19603f3d011682016040523d82523d6000602084013e610226565b606091505b505090508061026a5760405162461bcd60e51b815260206004820152601060248201526f14d5d05417d0d0531317d1905253115160821b60448201526064016100d2565b60405133904780156108fc02916000818181858888f19350505050158015610296573d6000803e3d6000fd5b506040516370a0823160e01b815230600482015282906001600160a01b038916906370a0823190602401602060405180830381865afa1580156102dd573d6000803e3d6000fd5b505050506040513d601f19601f8201168201806040525081019061030191906106a6565b61030b919061070e565b505050505050505050565b606061032360488361073b565b156103705760405162461bcd60e51b815260206004820152601e60248201527f5a525848656c7065723a20494e56414c49445f444154415f4c454e475448000060448201526064016100d2565b600061037d60488461074f565b90506000808267ffffffffffffffff81111561039b5761039b610763565b6040519080825280602002602001820160405280156103e657816020015b60408051606081018252600080825260208083018290529282015282526000199092019101816103b95790505b50905061040c604080516060810182526000808252602082018190529181019190915290565b60005b8481101561050457610422816048610779565b9350878488610432826014610798565b9261043f939291906107b0565b81019061044c91906107da565b6001600160a01b031682528787610464866014610798565b90610470876028610798565b9261047d939291906107b0565b81019061048a91906107da565b6001600160a01b0316602083015287876104a5866028610798565b906104b1876048610798565b926104be939291906107b0565b8101906104cb91906107f7565b6040830152825182908490839081106104e6576104e6610810565b602002602001018190525080806104fc90610826565b91505061040f565b50909695505050505050565b6001600160a01b038116811461052557600080fd5b50565b60008083601f84011261053a57600080fd5b50813567ffffffffffffffff81111561055257600080fd5b60208301915083602082850101111561056a57600080fd5b9250929050565b60008060008060008060a0878903121561058a57600080fd5b863561059581610510565b955060208701356105a581610510565b945060408701356105b581610510565b935060608701356105c581610510565b9250608087013567ffffffffffffffff8111156105e157600080fd5b6105ed89828a01610528565b979a9699509497509295939492505050565b6000806020838503121561061257600080fd5b823567ffffffffffffffff81111561062957600080fd5b61063585828601610528565b90969095509350505050565b602080825282518282018190526000919060409081850190868401855b8281101561069957815180516001600160a01b039081168652878201511687860152850151858501526060909301929085019060010161065e565b5091979650505050505050565b6000602082840312156106b857600080fd5b5051919050565b6000602082840312156106d157600080fd5b815180151581146106e157600080fd5b9392505050565b8183823760009101908152919050565b634e487b7160e01b600052601160045260246000fd5b600082821015610720576107206106f8565b500390565b634e487b7160e01b600052601260045260246000fd5b60008261074a5761074a610725565b500690565b60008261075e5761075e610725565b500490565b634e487b7160e01b600052604160045260246000fd5b6000816000190483118215151615610793576107936106f8565b500290565b600082198211156107ab576107ab6106f8565b500190565b600080858511156107c057600080fd5b838611156107cd57600080fd5b5050820193919092039150565b6000602082840312156107ec57600080fd5b81356106e181610510565b60006020828403121561080957600080fd5b5035919050565b634e487b7160e01b600052603260045260246000fd5b600060018201610838576108386106f8565b506001019056fea2646970667358221220e88463714b91bc08b6e88f90e1d623be243f7e1b6f656b059f646320513e670764736f6c634300080f0033a26469706673582212202293b66d43ecd747888cce4105176969d5a3f753b2c0a441b2d51f7c6447768764736f6c634300080f0033",
    "linkReferences": {}
  },
  "methodIdentifiers": {
    "execute(address,bytes)": "1cff79cd",
    "executeStrategy(address,bytes)": "5c84a373"
  },
  "id": 5
}